:100000006F00C06F00000000720700007007000062
:1000100000000000000000000000000000000000E0
:1000200000000000000000000000000000000000D0
:1000300070070000000000007007000000000000D2
:1000400070070000700700007007000070070000D4
:1000500070070000700700007007000070070000C4
:1000600070070000700700007007000070070000B4
:1000700070070000700700007007000070070000A4
:100080007007000070070000700700007007000094
:1000900070070000700700007007000000000000FB
:1000A000634E050263C305042E86AA857D5515C2DD
:1000B00085466378B6006356C00006068606E36C84
:1000C000B6FE014563E4C500918D558D858205829C
:1000D000F5FA82808682C93F2E8582823305A04050
:1000E0006347B000B305B040C1B7B305B0408682E6
:1000F000653F3305A0408282868263C7050063495D
:1001000005005D372E858282B305B040E35B05FEB6
:100110003305A040513F3305B040828200003111C9
:1001200026C406C822C6AE84AA87B2850143B5CAD2
:1001300063D49600B6840543338496406353040029
:10014000014422863A853EC21AC0EF0030020243C3
:1001500092472A87B30685000146B385C4406344AD
:10016000B00463D304008144338696003305E6402F
:10017000630403026372C7029307A002A30FF6FE93
:100180009306F6FF637AD700230FF6FE9306E6FF89
:100190006374D700A30EF6FEC2403244A24451015C
:1001A0008280A68651BFB385C70003C50500B3850D
:1001B000C60005062380A5004DB7B7F700E09C47B1
:1001C00037F700E03E951C47898FE3CE07FE82801B
:1001D000011106CE22CC26CA02C02A83635705002D
:1001E00089E685473303A0403EC01304100619C2B8
:1001F00013041004BA8459141A853AC81AC22EC6B8
:100200001AC4C93DA5472243B24542479376F50F2C
:1002100063E1A7069386060393F6F60F938714000F
:100220002380D4001A853AC83EC62EC4B53D9246F6
:10023000A245B24742472A8363FBB602824699C66B
:100240009306D0022380D700938724003385E740AC
:100250009356F501AA962380070085860146FD176F
:10026000634BD600F2406244D24405618280BE8472
:1002700061B7A29655B7B305C70083C2070003C391
:10028000050005062380550023806700C9BF511172
:1002900022C2296406C4130414C4B717014093870B
:1002A00007809C47898B91E70145A24012443101A8
:1002B00082807D1411C4056513050577FD3DF1BFEE
:1002C0000545E5B7B71701403707100098CB37074A
:1002D000080098CB3737014083578700898BEDDFC3
:1002E000420541812316A700373701408357870015
:1002F00093F70708E5FFB7170140414798CB21471F
:1003000098CB828037070800B717014098CB373762
:10031000014083578700898BEDDF42054181231619
:10032000A700373701408357870093F70708E5FF99
:10033000B7170140214798CB8280120561112E9595
:100340009385818122C226C0AA9541C39307900C50
:10035000138701812380F5001383150081471385DE
:10036000E6FF63C9A706854763F4D7009387F6FFC6
:1003700085429A97814563F3D200AA859A950343F3
:1003800027003304D0409302E6FF23806500938565
:100390000701014363485304054381456373C30068
:1003A0009685920503464700958DC105AE9723803B
:1003B000C70001466343A60403475700B697A38FBF
:1003C000E7FE12448244210182809307A00D138727
:1003D000818049B783431700B382F5008507A38066
:1003E000720041B783433700B3848500050323803F
:1003F0007400A38F75FEC10571BF03431700B38559
:10040000C7000506A380650075B76111B7170140E5
:100410003707080022C226C098CB05651387818163
:10042000130545CBB7370140014613030701BA85D1
:1004300083C60500890583C2F5FF9606B29696022B
:10044000B292AA96AA9203C4060083C3160083C67A
:10045000020083C2120083D487008988EDDC420445
:1004600041802396870003D4870009886DDC13D46C
:100470004600B3E383002396770083D3870093F38A
:100480002300E38C03FE920693D24200B3E65600AB
:100490002396D700E39E65F883D68700898AEDDE30
:1004A0009306F00F2396D700090693060002E31087
:1004B000D6F81387818D6304E3001A87B5B7214707
:1004C000373601409305F00FE54783568600898A49
:1004D000EDDE2316B600FD17EDFB7D1775F73737F8
:1004E00001408357870093F70708E5FF1244B717C9
:1004F0000140214798CB824421018280511113058C
:10050000E00406C4C1330145F53B1305F0045D3B2F
:100510001305700CC53BA24001453101E5B35111F3
:1005200022C237040020130404008347040006C4D9
:1005300026C06385070AB717014037070400B79440
:10054000040098CB1385043E8D391147B71701403D
:1005500098CB1385043E9531230004000D3B631FA7
:100560000506494585333D65130505A6B9310533B3
:1005700035E50545813B1305700C69330145593359
:100580000545493345453D3B0545AD3B1305400415
:10059000153B0145853B6145B533130550041D33BB
:1005A0001305700C85330145B13B0145A13B014565
:1005B000913B1305C00339331545A9336145193300
:1005C0001305000881331D3F13052002E53913058B
:1005D000800F0D3B13050002F53155390537130522
:1005E0006002CD311D35193F13054002E139313D1F
:1005F00013052002C1391305400F293313050002EA
:10060000D1311244A2408244310151B1B70700E018
:1006100083A7470F8280111122CA06CC26C82AC0A0
:1006200002C62E84E1E1B70700E083A7470F89C720
:1006300093F7070891E3D93FA28479A8B3059440C2
:100640009D462E8763D3B6001D47B776020093867A
:100650001610370300E00326430F137506083DE923
:1006600011C63AC42EC25D372247924589460146DB
:1006700063D4B6001306D7FF824793853400680021
:10068000BE953AC22126324682471247B70600E09D
:1006900023ACC60E8D453386970081460343060082
:1006A00085067C003385D700230065006305D700ED
:1006B0000506E395B6FE9306470093E606F8230683
:1006C000D1003246B70600E0BA9423AAC60EE3C7AB
:1006D00084F69DB7FD16C1F2E24052442685C2441D
:1006E000710182808144E5B7511122C206C42E8473
:1006F0001D37A240228512443101828097010020DB
:100700009381411013810100130500087310053017
:100710008D46170500001305E58E558D7310553075
:10072000138581819385818D01466356B50010C183
:100730001105E34EB5FE172500001305E557970593
:1007400000209385258C138681816388C500144120
:1007500094C111059105E39AC5FEB7F700E005477E
:1007600098C38567938727A273901734730020304E
:1007700001A0371702401C47B7068000D58F1CC761
:10078000AA8703C7070001E73385A7408280850752
:10079000CDBF130141FAA6C886CCA2CA2AC02EC278
:1007A000B284B68702C803C7040013841400A30FE1
:1007B000E10001EBE64056444245C6441301C10541
:1007C000828093065002630FD7003EC412468247D0
:1007D00085451305F1018297A284C247AA973EC8B6
:1007E000A247D1B783C61400130600031387240061
:1007F000A30FD100130400036390C608BA84014616
:100800000147254511A8931627008504369783C60E
:10081000F4FF06072E970546938506FD13F3F50FA3
:10082000E37365FE19C2A30FD1003AC66146635354
:10083000E60032C69305C00601466398B60083C63B
:10084000040005468504A30FD1008346F1019305FA
:1008500040066383B60663E4D5021307800563820E
:10086000E60A130730066380E60CA9D612463EC49A
:1008700085451305F1018DA81304000241B79305C6
:100880005007638BB60213068007638CC6061306F7
:100890003007E39DC6FC3ACC138747009C433AC41B
:1008A0003E853ECAF13D6247D247AA8551CBB2464A
:1008B000381822863E8525A0138747003AC405CA0A
:1008C0009386B6F8181093B6160088430146A945DA
:1008D000EFF01F90B24638182286AA850810EFF074
:1008E0001F841246AA85281882478297FDB51307F0
:1008F00050076395E60018108546C1BF1810814661
:10090000E9B7884313874700138686FA3AC48546B9
:10091000181013361600C145EFF09F8BB246AA851A
:100920003818228665BF138747009C433AC4B246F5
:10093000A30FF1003818228685451305F10145B74C
:1009400012463E8555B71301C1FD32CA2A862EC80C
:1009500036CC814514081305806E06C63ACE3ED0CB
:1009600036C0053DB2401301410282802A96AA8713
:100970006393C70082802380B7008507D5BF130625
:10098000000C9305000213858181CDB78147631365
:10099000F60082803387F500834607003307F500B1
:1009A00085072300D700E5B7411122C42A842E858C
:1009B00006C62EC0F1332A86120413858181229542
:1009C00022448245B2404101D1B7B72702400547D2
:1009D00098C3B71702403707080123A2070013077F
:1009E000170898C337079F0098C7B7060002371744
:1009F00002401C43F58FF5DF5C43B7160240F19BC4
:100A000093E727005CC32147DC42B18BE39EE7FEFE
:100A1000B70700E023AC070E1307000823AAE70E70
:100A20008280511106C426C022C2453737250900ED
:100A30001305057CEFF06FF805651305C5BD21377B
:100A4000371702401C4F856593864501D58F1CCF13
:100A5000B717014094437D761306F60FF18E94C3C9
:100A600094431147457693E6061094C398CB94437C
:100A70007D168564F18E94C39843B706F1FFFD1689
:100A80004D8F98C3214798CB9843758F98C398434F
:100A9000C166558F98C33707100098CB03A707800E
:100AA000B70610FFFD16137707F023A0E78003A712
:100AB00007801367070423A0E7809843758F98C3C6
:100AC0009843B706B000558F98C39843B70600F116
:100AD000FD16758F98C39843B706000B558F98C3C2
:100AE000F177373701409387F7312310F7008357A9
:100AF0000700C207C18393E707042310F7004135BD
:100B0000938504BF05454D3585659385C5BF0D4566
:100B1000613D8565938505C1114579358565938569
:100B200045C2154551358565938545C31D45AD3D88
:100B30008565938585C42145853D85659385C5C5B6
:100B400025459D3585659385C5C62945B13D3784C5
:100B50005F40F132130504E0EFF02FE60D358565B7
:100B6000938505C8154589358565938505C919455A
:100B7000253D8565938545CA1D453D354D32130597
:100B800004E0EFF08FE3E53B0547C1463146814580
:100B90000145EFF08FFA0147954629468545054501
:100BA000EFF0AFF901479546294699450545EFF025
:100BB000CFF8014789460946AD450545EFF0EFF707
:100BC000014789460946B5450545EFF00FF7EFF0B7
:100BD0001F95130504E0EFF04FDE15B70D0A0A4527
:100BE0007061706572206578616D706C650A0D00CA
:100BF0004451536F667420323032340041424344D2
:100C000045464748494A4B4C4D4E4F500000000066
:100C10005152535455565758595A3031323334354E
:100C200000000000363738395B5D28297B7D2F3F77
:100C30003B3A000043616C6C206D65204973686D20
:100C400061656C2E00000000536F6D652079656151
:100C500072732061676F202D000000006E6576655D
:100C600072206D696E6420686F7700006C6F6E672C
:100C700020707265636973656C792E2E0000000028
:100C8000202F5C5F2F5C202020202F5C5F2F5C00DA
:100C900028206F2E6F2029202028206F2E6F2029DA
:100CA00000000000203E205E203C202020203E202E
:100CB0005E203C00FFF0FFF0FFF0FFF0FFF0FFF0E0
:100CC000FFF0FFF0FFF0FFF0FFF0FFF0FFF0FFF0AC
:100CD000FFF0FFF0F8F0E730DFD0DFD0B260B260B5
:100CE000BFE0BFE0B760B8E0DFD0DFD0E730F8F0BA
:100CF000FFF0FFF0F8F0E030C010C0108D808D8064
:100D00008000800088808700C010C010E030F8F0BC
:100D1000FFF0FFF0FFF0FFF0FFF0E730C210C0106F
:100D2000C010C010E030F070F8F0FDF0FFF0FFF000
:100D3000FFF0FFF0FFF0FFF0FFF0FDF0F8F0F070D3
:100D4000E030C010E030F070F8F0FDF0FFF0FFF0A0
:100D5000FFF0FFF0FFF0FFF0F8F0F070F070F070CF
:100D6000C890800080008000CD90F8F0F070FFF017
:100D7000FFF0FFF0FFF0FFF0FDF0FDF0F8F0F07095
:100D8000E030C010C010C010E530F8F0F070FFF097
:100D9000FFF0FFF0FFF0FFF0FFF0FFF0FFF0FFF0DB
:100DA000F9F0F0F0F0F0F9F0FFF0FFF0FFF0FFF0F5
:100DB000FFF0FFF000000000000000000000000055
:100DC00006000F000F0006000000000000000000F9
:100DD00000000000FFF0FFF0FFF0FFF0F9F0F6F088
:100DE000EF70EF70EF70EF70F6F0F9F0FFF0FFF0DA
:100DF000FFF0FFF000000000000000000600090006
:100E00001080108010801080090006000000000093
:100E100000000000FFF0FFF0FFF0FE10FF90E15037
:100E2000CCD09E709E709E70CCF0E1F0FFF0FFF091
:100E3000FFF0FFF0FFF0FFF0F870F330E790E7907D
:100E4000E790F330F870FCF0FCF0F030FCF0FCF0D0
:100E5000FFF0FFF0FDF0FCF0FC70FC30FD30FD30E9
:100E6000FD70FDF0FDF0F1F0E1F0E1F0F3F0FFF0E6
:100E7000FFF0FFF0F3F0F1F0F4F0F670F330F1B0C2
:100E8000F4B0F630C73087B087B0CE30FC30FC30DD
:100E9000FE70FFF0FFF0FDF0FDF0D8D0E030E7305D
:100EA000CF908F80CF90E730E030D8D0FDF0FDF0CC
:100EB000FFF0FFF0FFF0FFF0EFF0E7F0E3F0E1F01C
:100EC000E0F0E070E0F0E1F0E3F0E7F0EFF0FFF0E9
:100ED000FFF0FFF0FFF0FFF0FF70FE70FC70F870A5
:100EE000F070E070F070F870FC70FE70FF70FFF052
:100EF000FFF0FFF0FFF0FDF0F8F0F070E030FDF0F3
:100F0000FDF0FDF0FDF0FDF0E030F070F8F0FDF0E8
:100F1000FFF0FFF0FFF0E670E670E670E670E67056
:100F2000E670E670E670E670E670FFF0E670E67078
:100F3000FFF0FFF0FFF0E010C930993099309930A0
:100F4000C930E130F930F930F930F930F930F930A1
:100F5000FFF0FFF0FFF0E070CF30CFF0CFF0E070A7
:100F6000CF30CF30E070FF30FF30CF30E070FFF097
:100F7000FFF0FFF0FFF0FFF0FFF0FFF0FFF0FFF0F9
:100F8000FFF0FFF0FFF0FFF0FFF0E010E010E010E6
:100F9000FFF0FFF0FDF0F8F0F070E030FDF0FDF054
:100FA000FDF0FDF0FDF0FDF0E030F070F8F0FDF048
:100FB000E030FFF0FFF0FDF0F8F0F070E030FDF011
:100FC000FDF0FDF0FDF0FDF0FDF0FDF0FDF0FDF0B9
:100FD000FFF0FFF0FFF0FDF0FDF0FDF0FDF0FDF0A3
:100FE000FDF0FDF0FDF0FDF0E030F070F8F0FDF008
:100FF000FFF0FFF0FFF0FFF0FFF0FFF0FEF0FE70FB
:10100000FE30C010FE30FE70FEF0FFF0FFF0FFF08B
:10101000FFF0FFF0FFF0FFF0FFF0FFF0FBF0F3F068
:10102000E3F0C010E3F0F3F0FBF0FFF0FFF0FFF0AF
:10103000FFF0FFF0FFF0FFF0FFF0FFF0FFF0FFF038
:10104000FFF0FFF0BFF0BFF0BFF0BFF0BFF08010C7
:10105000FFF0FFF0FFF0FFF0FFF0FFF0F770E73078
:10106000C7108000C710E730F770FFF0FFF0FFF007
:10107000FFF0FFF0FFF0FFF0FFF0FFF0FFF0FDF0FA
:10108000F8F0F070E030C0108000FFF0FFF0FFF0EB
:10109000FFF0FFF0FFF0FFF0FFF0FFF0FFF0800047
:1010A000C010E030F070F8F0FDF0FFF0FFF0FFF05E
:1010B000FFF0FFF0FFF0FFF0FFF0FFF0FFF0FFF0B8
:1010C000FFF0FFF0FFF0FFF0FFF0FFF0FFF0FFF0A8
:1010D000FFF0FFF0F9F0F9F0F0F0F0F0F0F0F0F0E0
:1010E000F0F0F9F0F9F0F9F0FFF0FFF0F9F0F9F0B5
:1010F000FFF0FFF0FFF0FFF0E670E670E670E670DC
:10110000FFF0FFF0FFF0FFF0FFF0FFF0FFF0FFF067
:10111000FFF0FFF0FFF0F990F990F990C000F33084
:10112000F330E670E6708030CCF0CCF0CCF0FFF01D
:10113000FFF0FFF0F9F0F9F0E070C030C9F0C9F04D
:10114000C070E030F930F930C030E070F9F0F9F0FB
:10115000FFF0FFF0FFF0FFF0FFE0C7C0C780C7104F
:10116000FE30FC70F8F0F1F0E3F0C7108F109F1024
:10117000FFF0FFF0FFF0F8F0F270E670E670E4F0D8
:10118000F1F0E1F0C1F0CC90CC30CE70C430E19001
:10119000FFF0FFF0F1F0F1F0F1F0F9F0F9F0F3F019
:1011A000FFF0FFF0FFF0FFF0FFF0FFF0FFF0FFF0C7
:1011B000FFF0FFF0FC70F9F0F1F0F3F0E3F0E3F092
:1011C000E3F0E3F0E3F0E3F0F3F0F1F0F9F0FC70BA
:1011D000FFF0FFF0E3F0F9F0F8F0FCF0FC70FC70C9
:1011E000FC70FC70FC70FC70FCF0F8F0F9F0E3F0BF
:1011F000FFF0FFF0FFF0FFF0FFF0C930C930E07002
:10120000F0F0C030F0F0E070C930C930FFF0FFF00E
:10121000FFF0FFF0FFF0FFF0FFF0FFF0F9F0F9F062
:10122000F9F0C030C030F9F0F9F0F9F0FFF0FFF05C
:10123000FFF0FFF0FFF0FFF0FFF0FFF0FFF0FFF036
:10124000FFF0FFF0FFF0FFF0FFF0F1F0F1F0F1F050
:10125000F9F0F3F0FFF0FFF0FFF0FFF0FFF0FFF028
:10126000FFF0C030C030FFF0FFF0FFF0FFF0FFF004
:10127000FFF0FFF0FFF0FFF0FFF0FFF0FFF0FFF0F6
:10128000FFF0FFF0FFF0FFF0FFF0F1F0F1F0F1F010
:10129000FFF0FFF0FFF0FFE0FFC0FF80FF10FE3027
:1012A000FC70F8F0F1F0E3F0C7F08FF09FF0FFF082
:1012B000FFF0FFF0F070C010CF909F809F009E4025
:1012C0009CC099C093C087C08FC0CF90C010F070F1
:1012D000FFF0FFF0FCF0F8F0E0F0E0F0FCF0FCF0E4
:1012E000FCF0FCF0FCF0FCF0FCF0FCF0E010E01096
:1012F000FFF0FFF0E030C0108F809FC09F80FF1094
:10130000FE30FC70F8F0F1F0E3F0C7F080008000F0
:10131000FFF0FFF0E030C0108F809FC0FFC0FF8063
:10132000F010F030FF90FFC09FC08F80C010E03001
:10133000FFF0FFF0FE30FC30F830F130E330C73022
:101340008F309F3080008000FF30FF30FF30FF3053
:10135000FFF0FFF0800080009FF09FF09FF0803052
:10136000C010FF80FFC0FFC09FC08F80C010E03062
:10137000FFF0FFF0FC30F830F1F0E3F0C7F0CFF011
:10138000803080108F809FC09FC08F80C010E03061
:10139000FFF0FFF080008000FF90FF90FF30FF30F3
:1013A000FE70FE70FCF0FCF0F9F0F9F0F3F0F3F0F1
:1013B000FFF0FFF0F070E030C710CF90CF90C71073
:1013C000E030C0108F809FC09FC08F80C010E03081
:1013D000FFF0FFF0E030C0108F809FC09FC08F8073
:1013E000C000E000FF90FF10FE30FC70E0F0E1F084
:1013F000FFF0FFF0FFF0FFF0FFF0FFF0F1F0F1F091
:10140000F1F0FFF0FFF0FFF0F1F0F1F0F1F0FFF09C
:10141000FFF0FFF0FFF0FFF0FFF0FFF0F1F0F1F070
:10142000F1F0FFF0FFF0FFF0F1F0F1F0F1F0F9F082
:10143000F9F0F3F0FF30FE30FC70F8F0F1F0E3F07B
:10144000C7F0C7F0E3F0F1F0F8F0FC70FE30FF30C9
:10145000FFF0FFF0FFF0FFF0FFF0FFF0FFF0C01033
:10146000C010FFF0FFF0C010C010FFF0FFF0FFF061
:10147000FFF0FFF0CFF0C7F0E3F0F1F0F8F0FC7010
:10148000FE30FE30FC70F8F0F1F0E3F0C7F0CFF082
:10149000FFF0FFF0E070C0308F109F909F10FE3083
:1014A000FC70F8F0F9F0F9F0F9F0FFF0F9F0F9F06C
:1014B000FFF0FFF0E030C010CF9098409040924095
:1014C000924092409240901098308FF0C030F030AF
:1014D000FFF0FFF0F9F0F9F0F0F0F0F0F0F0E67066
:1014E000E670E670CF30C030C0309F909F909F90E4
:1014F000FFF0FFF080F080709E309F309F309E3074
:10150000807080309F109F909F909F1080308070DF
:10151000FFF0FFF0F070E030C710CF909FF09FF029
:101520009FF09FF09FF09FF0CF90C710E030F070D9
:10153000FFF0FFF080F080709E309F309F909F9072
:101540009F909F909F909F909F309E30807080F0E2
:10155000FFF0FFF0801080109FF09FF09FF09FF051
:10156000807080709FF09FF09FF09FF0801080103F
:10157000FFF0FFF0801080109FF09FF09FF09FF031
:10158000807080709FF09FF09FF09FF09FF09FF021
:10159000FFF0FFF0F030E010C790CFF09FF09FF029
:1015A0009C109C109F909F90CF90C790E010F010DF
:1015B000FFF0FFF09F909F909F909F909F909F9033
:1015C000801080109F909F909F909F909F909F90E1
:1015D000FFF0FFF0E070E070F9F0F9F0F9F0F9F0E9
:1015E000F9F0F9F0F9F0F9F0F9F0F9F0E070E070E5
:1015F000FFF0FFF0FF90FF90FF90FF90FF90FF90B3
:10160000FF90FF90FF909F909F908F30C030E070D0
:10161000FFF0FFF09F909F109E309C7098F091F02B
:1016200083F083F091F098F09C709E309F109F9013
:10163000FFF0FFF09FF09FF09FF09FF09FF09FF072
:101640009FF09FF09FF09FF09FF09FF08010801020
:10165000FFF0FFF09F908F108F10861086109090F3
:101660009090999099909F909F909F909F909F901D
:10167000FFF0FFF09F908F908F90879093909390C2
:10168000999099909C909C909E109F109F109F9075
:10169000FFF0FFF0F0F0E070C630CF309F909F90E9
:1016A0009F909F909F909F90CF30C630E070F0F059
:1016B000FFF0FFF0807080309F109F909F909F9070
:1016C0009F10803080709FF09FF09FF09FF09FF000
:1016D000FFF0FFF0F0F0E070C630CF309F909F90A9
:1016E0009F909F909F909C90CC30C630E010F090DF
:1016F000FFF0FFF0807080309F109F909F909F9030
:101700009F108030807098F09C709E309F109F904A
:10171000FFF0FFF0E070C0308F109F909FF08FF0CF
:10172000C070E030FF10FF909F908F10C030E070CD
:10173000FFF0FFF0C030C030F9F0F9F0F9F0F9F047
:10174000F9F0F9F0F9F0F9F0F9F0F9F0F9F0F9F051
:10175000FFF0FFF09F909F909F909F909F909F9091
:101760009F909F909F909F909F90CF30C030E0704F
:10177000FFF0FFF09F909F909F90CF30CF30CF3001
:10178000E670E670E670F0F0F0F0F0F0F9F0F9F0E5
:10179000FFF0FFF09F909F909F909F909F909F9051
:1017A0009F9099909990909086108F108F109F9095
:1017B000FFF0FFF09F909F90CF30CF30E670F0F0B9
:1017C000F9F0F9F0F0F0E670CF30CF309F909F90B5
:1017D000FFF0FFF09F909F90CF30CF30E670E67023
:1017E000F0F0F0F0F9F0F9F0F9F0F9F0F9F0F9F0C3
:1017F000FFF0FFF080108010FF30FF30FE70FCF033
:10180000F9F0F9F0F3F0E7F0CFF0CFF080108010AE
:10181000FFF0FFF0E070E070E7F0E7F0E7F0E7F0EE
:10182000E7F0E7F0E7F0E7F0E7F0E7F0E070E0700E
:10183000FFF0FFF0FFF0BFF09FF08FF0C7F0E3F094
:10184000F1F0F8F0FC70FE30FF10FF80FFC0FFF0F9
:10185000FFF0FFF0E070E070FE70FE70FE70FE7052
:10186000FE70FE70FE70FE70FE70FE70E070E07044
:10187000FFF0FFF0FDF0F8F0F070E230C7108F805D
:101880009FC0FFF0FFF0FFF0FFF0FFF0FFF0FFF070
:10189000FFF0FFF0FFF0FFF0FFF0FFF0FFF0FFF0D0
:1018A000FFF0FFF0FFF0FFF0FFF0FFF0FFF0FFF0C0
:1018B00080008000FFF0F8F0F8F0F8F0F9F0F9F0AF
:1018C000FCF0FFF0FFF0FFF0FFF0FFF0FFF0FFF0A3
:1018D000FFF0FFF0FFF0FFF0FFF0FFF0FFF0E0306F
:1018E000C010FF90E010C0109F909F908010C0101B
:1018F000FFF0FFF09FF09FF09FF09FF09FF090703F
:1019000080308F109F909F909F909F1080308070AC
:10191000FFF0FFF0FFF0FFF0FFF0FFF0FFF0E070EE
:10192000C0308F909FF09FF09FF08F90C030E0709C
:10193000FFF0FFF0FF90FF90FF90FF90FF90E0908E
:10194000C0108E109F909F909F908F90C010E010BD
:10195000FFF0FFF0FFF0FFF0FFF0FFF0FFF0E070AE
:10196000C0308F90801080309FF08FF0C030E070DA
:10197000FFF0FFF0F870F070E3F0E7F0E7F0E7F069
:1019800080F080F0E7F0E7F0E7F0E7F0E7F0E7F06D
:10199000FFF0FFF0FFF0FFF0FFF0FFF0FFF0E010CE
:1019A000C0108F909F908F10C010E090FF90FF109C
:1019B000C030C0709FF09FF09FF09FF09FF090F0BC
:1019C00080708E309F309F309F309F309F309F308F
:1019D000FFF0FFF0FFF0FFF0F9F0F9F0FFF0F1F0A9
:1019E000F1F0F9F0F9F0F9F0F9F0F9F0E070E070E9
:1019F000FFF0FFF0FFF0FFF0FE70FE70FFF0FC70F4
:101A0000FC70FE70FE70FE70FE70FE70FE70E67080
:101A1000E070F0F0CFF0CFF0CFF0CFF0CFF0CE709D
:101A2000CC70C8F0C1F0C1F0C8F0CC70CE30CF306F
:101A3000FFF0FFF0F1F0F1F0F9F0F9F0F9F0F9F062
:101A4000F9F0F9F0F9F0F9F0F9F0F9F0E070E07080
:101A5000FFF0FFF0FFF0FFF0FFF0FFF0FFF0A670E7
:101A60008030801099909990999099909990999040
:101A7000FFF0FFF0FFF0FFF0FFF0FFF0FFF0C070AD
:101A8000C030CF10CF90CF90CF90CF90CF90CF904D
:101A9000FFF0FFF0FFF0FFF0FFF0FFF0FFF0E0706D
:101AA000C0308F109F909F909F908F10C030E0703B
:101AB000FFF0FFF0FFF0FFF0FFF0FFF0FFF08070AD
:101AC00080309F109F909F908F10803090709FF07B
:101AD0009FF09FF0FFF0FFF0FFF0FFF0FFF0E0104D
:101AE000C0108F909F909F908F10C010E090FF903B
:101AF000FF90FF90FFF0FFF0FFF0FFF0FFF0C83025
:101B0000C010C790CFF0CFF0CFF0CFF0CFF0CFF034
:101B1000FFF0FFF0FFF0FFF0FFF0FFF0FFF0C0F08C
:101B200080709FF080F0C070FE70FE708070C0F01A
:101B3000FFF0FFF0FFF0E7F0E7F0E7F0E7F080F00C
:101B400080F0E7F0E7F0E7F0E7F0E7F0E070F07042
:101B5000FFF0FFF0FFF0FFF0FFF0FFF0FFF09F90CD
:101B60009F909F909F909F909F908F10C010E090AB
:101B7000FFF0FFF0FFF0FFF0FFF0FFF0FFF09F90AD
:101B80009F90CF30CF30E670E670F0F0F0F0F9F0D3
:101B9000FFF0FFF0FFF0FFF0FFF0FFF0FFF0999093
:101BA00099909990999099909090C030C630EF702C
:101BB000FFF0FFF0FFF0FFF0FFF0FFF0FFF09F30CD
:101BC0008E30C470E0F0F1F0E0F0C4708E309F30E1
:101BD000FFF0FFF0FFF0FFF0FFF0FFF0FFF0CF307D
:101BE000CF30E670E670F0F0F0F0F9F0F9F0F3F0D5
:101BF000F3F0E7F0FFF0FFF0FFF0FFF0FFF08030D0
:101C00008070FCF0F9F0F3F0E7F0CFF08030803036
:101C1000FFF0FFF0FC30F830F1F0F3F0F3F0F3F008
:101C2000E3F0C7F0E3F0F3F0F3F0F3F0F1F0F830A5
:101C3000FC30FFF0F9F0F9F0F9F0F9F0F9F0F9F013
:101C4000F9F0F9F0F9F0F9F0F9F0F9F0F9F0F9F04C
:101C5000FFF0FFF0C3F0C1F0F8F0FCF0FCF0FCF096
:101C6000FC70FE30FC70FCF0FCF0FCF0F8F0C1F011
:101C7000C3F0FFF0FFF0FFF0E390C9309C70FFF07D
:101C8000FFF0FFF0FFF0FFF0FFF0FFF0FFF0FFF0DC
:101C9000FFF0FFF0FFF0FFF0FFF0FFF0F9F0F0F0E1
:101CA000E670CF309F909F9080108010FFF0FFF083
:101CB000FFF0FFF0F070E030C710CF909F909FF0E2
:101CC0009FF09FF09FF0CF90C710E030F070F9F0D8
:101CD000E1F0E1F0FFF0FFF0E670E670FFF09F90BA
:101CE0009F909F909F909F909F908F10C010E0902A
:101CF000FFF0FFF0FFF0FE70FCF0F9F0FFF0E07095
:101D0000C0308F90801080109FF08FF0C030E07056
:101D1000FFF0FFF0FFF0F9F0F0F0E670FFF0E030D8
:101D2000C010FF90E010C0109F909F908010C010D6
:101D3000FFF0FFF0FFF0FFF0E670E670FFF0E0303C
:101D4000C010FF90E010C0109F909F908010C010B6
:101D5000FFF0FFF0FFF0F3F0F9F0FCF0FFF0E030FF
:101D6000C010FF90E010C0109F909F908010C01096
:101D7000FFF0FFF0FFF0F9F0F6F0F9F0FFF0E030DF
:101D8000C010FF90E010C0109F909F908010C01076
:101D9000FFF0FFF0FFF0FFF0FFF0FFF0FFF0E0706A
:101DA000C0308F109FF09FF09FF08F10C030E07018
:101DB000F9F0E1F0FFF0F9F0F0F0E670FFF0E0701C
:101DC000C0308F90801080109FF09FF0C030E07086
:101DD000FFF0FFF0FFF0FFF0E670E670FFF0E0705C
:101DE000C0308F90801080109FF09FF0C030E07066
:101DF000FFF0FFF0FFF0F3F0F9F0FCF0FFF0E0701F
:101E0000C0308F90801080109FF09FF0C030E07045
:101E1000FFF0FFF0FFF0FFF0E4F0E4F0FFF0F1F08E
:101E2000F1F0F9F0F9F0F9F0F9F0F9F0E070E070A4
:101E3000FFF0FFF0FFF0F9F0F0F0E670FFF0F1F0E6
:101E4000F1F0F9F0F9F0F9F0F9F0F9F0E070E07084
:101E5000FFF0FFF0FFF0F3F0F9F0FCF0FFF0F1F02D
:101E6000F1F0F9F0F9F0F9F0F9F0F9F0E070E07064
:101E7000FFF0FFF0E670E670FFF0F9F0F9F0F0F037
:101E8000F0F0E670E670CF30C03080109F909F90E9
:101E9000FFF0FFF0F9F0F6F0F9F0FFF0F9F0F0F0F4
:101EA000F0F0E670E670CF30C03080109F909F90C9
:101EB000FFF0FFF0FE70FCF0F9F0801080109FF052
:101EC0009FF0807080709FF09FF09FF080108010D6
:101ED000FFF0FFF0FFF0FFF0FFF0FFF0FFF0FFF08A
:101EE000C2309990F990C03099F099F09990C4302F
:101EF000FFF0FFF0F810F810F0F0F0F0E0F0E4F090
:101F0000E430CC30CCF0C0F080F09CF09C109C1001
:101F1000FFF0FFF0FFF0F9F0F0F0E670FFF0E07096
:101F2000C0308F109F909F909F908F10C030E070B6
:101F3000FFF0FFF0FFF0FFF0E670E670FFF0E070FA
:101F4000C0308F109F909F909F908F10C030E07096
:101F5000FFF0FFF0FFF0F3F0F9F0FCF0FFF0E070BD
:101F6000C0308F109F909F909F908F10C030E07076
:101F7000FFF0FFF0FFF0F9F0F0F0E670FFF09F9057
:101F80009F909F909F909F909F908F10C010E09087
:101F9000FFF0FFF0FFF0F3F0F9F0FCF0FFF09F909E
:101FA0009F909F909F909F909F908F10C010E09067
:101FB000FFF0FFF0FFF0FFF0E670E670FFF0CF30CB
:101FC000CF30CF30CF30CF30E670F070F8F0F9F08E
:101FD000C1F0C3F0CE70CE70FFF0E070C0308F1053
:101FE0009F909F909F909F909F908F10C030E07027
:101FF000FFF0FFF0FFF0FFF0E670E670FFF09F905B
:102000009F909F909F909F909F908F10C010E09006
:10201000FFF0FFF0FFF0F9F0F9F0F070E030C130C0
:10202000C9F0C9F0C9F0C130E030F070F9F0F9F052
:10203000FFF0FFF0FFF0FFF0F870F030F330F3F056
:10204000F3F0E0F0F3F0F3F0E7F0C010C430FFF08D
:10205000FFF0FFF09F909F90CF30CF30E670E6709A
:10206000F0F0F0F0F9F0C030F9F0C030F9F0F9F02C
:10207000FFF0FFF0FFF0FFF0FFF083F099F099F030
:1020800099F082709E709C109E709E709E709F1042
:10209000FFF0FFF0FC70F830F930F9F0F9F0F9F0EA
:1020A000F9F0E070F9F0F9F0F9F0F9F0C9F0C1F0E9
:1020B000E3F0FFF0FFF0FCF0F9F0F3F0FFF0E030B8
:1020C000C010FF90E010C0109F909F908010C01033
:1020D000FFF0FFF0FFF0FCF0F9F0F3F0FFF0F1F0AB
:1020E000F1F0F9F0F9F0F9F0F9F0F9F0E070E070E2
:1020F000FFF0FFF0FFF0FCF0F9F0F3F0FFF0E0701C
:10210000C0308F109F909F909F908F10C030E070D4
:10211000FFF0FFF0FFF0FCF0F9F0F3F0FFF09F901C
:102120009F909F909F909F909F908F10C010E090E5
:10213000FFF0FFF0FFF0FFF0F130E470FFF0C0704F
:10214000C030CF10CF90CF90CF90CF90CF90CF9086
:10215000FFF0FFF0F130E470FFF09F908F908790D8
:102160008390919098909C109E109F109F909F90AC
:10217000FFF0FFF0E030C010FF90C01080109F9083
:102180008010C010FFF0C030C030FFF0FFF0FFF053
:10219000FFF0FFF0E070C0308F109F909F908F1085
:1021A000C030E070FFF0C030C030FFF0FFF0FFF053
:1021B000FFF0FFF0F9F0F9F0FFF0F9F0F9F0F9F0C5
:1021C000F1F0E3F0C7F08F909F908F10C030E07077
:1021D000FFF0FFF0FFF0FFF0FFF0800080009FF0C5
:1021E0009FF09FF09FF0FFF0FFF0FFF0FFF0FFF097
:1021F000FFF0FFF0FFF0FFF0FFF000100010FF9085
:10220000FF90FF90FF90FF90FFF0FFF0FFF0FFF0D6
:10221000FFF0FFF0FFF0FFF0CFF08FF0CF30CE7087
:1022200084F0F9F0F230E790CF30FE70FE10FFF04E
:10223000FFF0FFF0FFF0FFF0CFF08FF0CF30CE7067
:1022400084F0F9F0F290E490CC10FF90FF90FFF052
:10225000FFF0FFF0F9F0F9F0FFF0FFF0F9F0F9F01E
:10226000F9F0F0F0F0F0F0F0F0F0F0F0F9F0F9F053
:10227000FFF0FFF0FFF0FFF0FFF0FFF0FFF0E730BE
:10228000CE709CF0CE70E730FFF0FFF0FFF0FFF073
:10229000FFF0FFF0FFF0FFF0FFF0FFF0FFF09CF029
:1022A000CE70E730CE709CF0FFF0FFF0FFF0FFF053
:1022B000FFF0FFF07770DDD07770DDD07770DDD084
:1022C0007770DDD07770DDD07770DDD07770DDD0BE
:1022D0007770DDD0AAA05550AAA05550AAA055509D
:1022E000AAA05550AAA05550AAA05550AAA0555032
:1022F000AAA0555088802220888022208880222011
:1023000088802220888022208880222088802220A5
:1023100088802220F9F0F9F0F9F0F9F0F9F0F9F0FD
:10232000F9F0F9F0F9F0F9F0F9F0F9F0F9F0F9F065
:10233000F9F0F9F0F9F0F9F0F9F0F9F0F9F0F9F055
:10234000F9F001F001F0F9F0F9F0F9F0F9F0F9F035
:10235000F9F0F9F0F9F0F9F0F9F0F9F0F9F0F9F035
:1023600001F001F0F9F001F001F0F9F0F9F0F9F005
:10237000F9F0F9F0C9F0C9F0C9F0C9F0C9F0C9F035
:10238000C9F009F009F0C9F0C9F0C9F0C9F0C9F005
:10239000C9F0C9F0FFF0FFF0FFF0FFF0FFF0FFF031
:1023A000FFF001F001F0C9F0C9F0C9F0C9F0C9F0BF
:1023B000C9F0C9F0FFF0FFF0FFF0FFF0FFF0FFF011
:1023C00001F001F0F9F001F001F0F9F0F9F0F9F0A5
:1023D000F9F0F9F0C9F0C9F0C9F0C9F0C9F0C9F0D5
:1023E00009F009F0F9F009F009F0C9F0C9F0C9F0F5
:1023F000C9F0C9F0C9F0C9F0C9F0C9F0C9F0C9F015
:10240000C9F0C9F0C9F0C9F0C9F0C9F0C9F0C9F004
:10241000C9F0C9F0FFF0FFF0FFF0FFF0FFF0FFF0B0
:1024200001F001F0F9F009F009F0C9F0C9F0C9F0C4
:10243000C9F0C9F0C9F0C9F0C9F0C9F0C9F0C9F0D4
:1024400009F009F0F9F001F001F0FFF0FFF0FFF002
:10245000FFF0FFF0C9F0C9F0C9F0C9F0C9F0C9F048
:10246000C9F001F001F0FFF0FFF0FFF0FFF0FFF026
:10247000FFF0FFF0F9F0F9F0F9F0F9F0F9F0F9F008
:1024800001F001F0F9F001F001F0FFF0FFF0FFF0D2
:10249000FFF0FFF0FFF0FFF0FFF0FFF0FFF0FFF0C4
:1024A000FFF001F001F0F9F0F9F0F9F0F9F0F9F0CE
:1024B000F9F0F9F0F9F0F9F0F9F0F9F0F9F0F9F0D4
:1024C000F9F0F800F800FFF0FFF0FFF0FFF0FFF088
:1024D000FFF0FFF0F9F0F9F0F9F0F9F0F9F0F9F0A8
:1024E000F9F000000000FFF0FFF0FFF0FFF0FFF058
:1024F000FFF0FFF0FFF0FFF0FFF0FFF0FFF0FFF064
:10250000FFF000000000F9F0F9F0F9F0F9F0F9F04F
:10251000F9F0F9F0F9F0F9F0F9F0F9F0F9F0F9F073
:10252000F9F0F800F800F9F0F9F0F9F0F9F0F9F045
:10253000F9F0F9F0FFF0FFF0FFF0FFF0FFF0FFF02F
:10254000FFF000000000FFF0FFF0FFF0FFF0FFF0F1
:10255000FFF0FFF0F9F0F9F0F9F0F9F0F9F0F9F027
:10256000F9F000000000F9F0F9F0F9F0F9F0F9F0F5
:10257000F9F0F9F0F9F0F9F0F9F0F9F0F9F0F9F013
:10258000F800F800F9F0F800F800F9F0F9F0F9F0C7
:10259000F9F0F9F0C9F0C9F0C9F0C9F0C9F0C9F013
:1025A000C9F0C800C800C9F0C9F0C9F0C9F0C9F045
:1025B000C9F0C9F0C9F0C9F0C9F0C9F0C9F0C9F053
:1025C000C800C800CFF0C000C000FFF0FFF0FFF06F
:1025D000FFF0FFF0FFF0FFF0FFF0FFF0FFF0FFF083
:1025E000C000C000CFF0C800C800C9F0C9F0C9F0F1
:1025F000C9F0C9F0C9F0C9F0C9F0C9F0C9F0C9F013
:1026000008000800FFF000000000FFF0FFF0FFF0FE
:10261000FFF0FFF0FFF0FFF0FFF0FFF0FFF0FFF042
:1026200000000000FFF008000800C9F0C9F0C9F080
:10263000C9F0C9F0C9F0C9F0C9F0C9F0C9F0C9F0D2
:10264000C800C800CFF0C800C800C9F0C9F0C9F080
:10265000C9F0C9F0FFF0FFF0FFF0FFF0FFF0FFF06E
:1026600000000000FFF000000000FFF0FFF0FFF0AE
:10267000FFF0FFF0C9F0C9F0C9F0C9F0C9F0C9F026
:1026800008000800FFF008000800C9F0C9F0C9F010
:10269000C9F0C9F0F9F0F9F0F9F0F9F0F9F0F9F052
:1026A00000000000FFF000000000FFF0FFF0FFF06E
:1026B000FFF0FFF0C9F0C9F0C9F0C9F0C9F0C9F0E6
:1026C000C9F000000000FFF0FFF0FFF0FFF0FFF0A6
:1026D000FFF0FFF0FFF0FFF0FFF0FFF0FFF0FFF082
:1026E00000000000FFF000000000F9F0F9F0F9F040
:1026F000F9F0F9F0FFF0FFF0FFF0FFF0FFF0FFF06E
:10270000FFF000000000C9F0C9F0C9F0C9F0C9F03D
:10271000C9F0C9F0C9F0C9F0C9F0C9F0C9F0C9F0F1
:10272000C9F0C000C000FFF0FFF0FFF0FFF0FFF0C5
:10273000FFF0FFF0F9F0F9F0F9F0F9F0F9F0F9F045
:10274000F800F800F9F0F800F800FFF0FFF0FFF0F3
:10275000FFF0FFF0FFF0FFF0FFF0FFF0FFF0FFF001
:10276000F800F800F9F0F800F800F9F0F9F0F9F0E5
:10277000F9F0F9F0FFF0FFF0FFF0FFF0FFF0FFF0ED
:10278000FFF0C000C000C9F0C9F0C9F0C9F0C9F03D
:10279000C9F0C9F0C9F0C9F0C9F0C9F0C9F0C9F071
:1027A000C9F008000800C9F0C9F0C9F0C9F0C9F0C3
:1027B000C9F0C9F0F9F0F9F0F9F0F9F0F9F0F9F031
:1027C00000000000FFF000000000F9F0F9F0F9F05F
:1027D000F9F0F9F0F9F0F9F0F9F0F9F0F9F0F9F0B1
:1027E000F9F001F001F0FFF0FFF0FFF0FFF0FFF073
:1027F000FFF0FFF0FFF0FFF0FFF0FFF0FFF0FFF061
:10280000FFF0F800F800F9F0F9F0F9F0F9F0F9F05C
:10281000F9F0F9F0000000000000000000000000E6
:1028200000000000000000000000000000000000A8
:1028300000000000FFF0FFF0FFF0FFF0FFF0FFF0FE
:10284000FFF0FFF0000000000000000000000000AA
:102850000000000003F003F003F003F003F003F0C6
:1028600003F003F003F003F003F003F003F003F0D0
:1028700003F003F0FC00FC00FC00FC00FC00FC008A
:10288000FC00FC00FC00FC00FC00FC00FC00FC0068
:10289000FC00FC0000000000000000000000000040
:1028A00000000000FFF0FFF0FFF0FFF0FFF0FFF08E
:1028B000FFF0FFF0FFF0FFF0FFF0FFF0FFF0FFF0A0
:1028C000FFF0F3B0E130CC70DEF0CC70E130F3B06B
:1028D000FFF0FFF0FFF0FFF0FFF0FFF0F0F0E67028
:1028E000CF30CF30C070CE30CF30CF30CE30C07090
:1028F000CFF0CFF0FFF0C010C010CF90CFF0CFF0EE
:10290000CFF0CFF0CFF0CFF0CFF0CFF0CFF0CFF0CF
:10291000FFF0FFF0FFF0FFF0C0008010E670E670FF
:10292000E670E670E670E670E670E670E670E670F7
:10293000FFF0FFF0FFF0C010C010C790E3F0F1F01F
:10294000F8F0FC70F8F0F1F0E3F0C790C010C010A0
:10295000FFF0FFF0FFF0FFF0FFF0FFF0FFF0E010FE
:10296000C0108E709F309F309F308E30C070E0F06E
:10297000FFF0FFF0FFF0FFF0FFF0FFF09F309F301F
:102980009F309F309F308E30803081309FF09FF09D
:102990009FF09FF0FFF0FFF0FFF0FFF0FFF0E790F7
:1029A000C310C870F8F0F9F0F9F0F1F0F3F0F3F0BB
:1029B000FFF0FFF0E070F9F0F9F0E070C0308F3018
:1029C0009F909F908F10C030E070F9F0F9F0E070A8
:1029D000FFF0FFF0FFF0FFF0F0F0E070C670CF30D6
:1029E000CF30C030C030CF30CF30C630E070F0F0E4
:1029F000FFF0FFF0FFF0FFF0FFF0F8F0F070E730CD
:102A0000CF90CF90CF90E730F270F270C210C71025
:102A1000FFF0FFF0FFF0FFF0F0F0E070E770E7F09C
:102A2000E3F0F1F0F8F0F070E670E670E070F0F0CE
:102A3000FFF0FFF0FFF0FFF0FFF0FFF0FFF0FFF01E
:102A4000C630909099909090C630FFF0FFF0FFF064
:102A5000FFF0FFF0FFF0FFF0FFF0FF30FF30F0700D
:102A6000E030C430CC90C990C110E030F070E7F095
:102A7000E7F0FFF0FC30F030E3F0E7F0CFF0CFF01C
:102A8000C070C070CFF0CFF0E7F0E3F0F030FC3072
:102A9000FFF0FFF0FFF0F1F0E0F0C470CE70CE7008
:102AA000CE70CE70CE70CE70CE70CE70CE70CE7036
:102AB000FFF0FFF0FFF0FFF0FFF0C030C030FFF09C
:102AC000FFF0C030C030FFF0FFF0C030C030FFF08A
:102AD000FFF0FFF0FFF0FFF0FFF0FFF0F9F0F9F08A
:102AE000E070E070F9F0F9F0FFF0E070E070FFF0F6
:102AF000FFF0FFF0FFF0CFF0C3F0F0F0FC30FF107C
:102B0000FF10FC30F0F0C3F0CFF0FFF0C010C010A9
:102B1000FFF0FFF0FFF0FFF0FF90FE10F870E1F023
:102B2000C7F0E1F0F870FE10FF90FFF0C010C01089
:102B3000FFF0FFF0FE30FC10F880F9C0F9C0F9F0AA
:102B4000F9F0F9F0F9F0F9F0F9F0F9F0F9F0F9F03D
:102B5000F9F0F9F0F9F0F9F0F9F0F9F0F9F0F9F02D
:102B6000F9F0F9F0F9F0F9F0F9F039F039F011F085
:102B700083F0C7F0FFF0FFF0FFF0FFF0F9F0F9F09D
:102B8000FFF0C030C030FFF0F9F0F9F0FFF0FFF0D7
:102B9000FFF0FFF0FFF0FFF0FFF0FFF0E7F08190B3
:102BA0009810FE70E7F081909810FE70FFF0FFF033
:102BB000FFF0FFF0F0F0E070E670E670E070F0F02B
:102BC000FFF0FFF0FFF0FFF0FFF0FFF0FFF0FFF08D
:102BD000FFF0FFF0FFF0FFF0FFF0FFF0FFF0F0F08C
:102BE000E070E070E070E070F0F0FFF0FFF0FFF0F8
:102BF000FFF0FFF0FFF0FFF0FFF0FFF0FFF0FFF05D
:102C0000FDF0F8F0F8F0FDF0FFF0FFF0FFF0FFF05E
:102C1000FFF0FFF0FFF0FC00FC00FCF0FCF0FCF02B
:102C2000FCF0FCF0DCF0CCF0E4F0F0F0F8F0FCF0BC
:102C3000FFF0FFF0D3F0C1F0C9F0C9F0C9F0FFF028
:102C4000FFF0FFF0FFF0FFF0FFF0FFF0FFF0FFF00C
:102C5000FFF0FFF0C3F0F9F0E3F0CFF0C1F0FFF0C8
:102C6000FFF0FFF0FFF0FFF0FFF0FFF0FFF0FFF0EC
:102C7000FFF0FFF0FFF0FFF0FFF0FFF0F0F0F0F0FA
:102C8000F0F0F0F0F0F0F0F0FFF0FFF0FFF0FFF008
:102C9000FFF0FFF0FFF0FFF0FFF0FFF0FFF0FFF0BC
:102CA000FFF0FFF0FFF0FFF0FFF0FFF0FFF0FFF0AC
:042CB000FFF0FFF042
:102CB4000100000000000000DAC4BFB3C0D9000066
:082CC400C9CDBBBAC8BC000079
:00000001FF
